{
  "contractName": "Tracker",
  "abi": [
    {
      "inputs": [],
      "payable": false,
      "stateMutability": "nonpayable",
      "type": "constructor"
    },
    {
      "constant": true,
      "inputs": [
        {
          "internalType": "uint256",
          "name": "",
          "type": "uint256"
        }
      ],
      "name": "Donations",
      "outputs": [
        {
          "internalType": "uint256",
          "name": "id",
          "type": "uint256"
        },
        {
          "internalType": "string",
          "name": "name",
          "type": "string"
        },
        {
          "internalType": "string",
          "name": "origin",
          "type": "string"
        },
        {
          "internalType": "string",
          "name": "destination",
          "type": "string"
        },
        {
          "internalType": "string",
          "name": "currentLoc",
          "type": "string"
        },
        {
          "internalType": "string",
          "name": "patient",
          "type": "string"
        },
        {
          "internalType": "string",
          "name": "donor",
          "type": "string"
        },
        {
          "internalType": "string",
          "name": "subtype",
          "type": "string"
        }
      ],
      "payable": false,
      "stateMutability": "view",
      "type": "function"
    },
    {
      "constant": true,
      "inputs": [
        {
          "internalType": "uint256",
          "name": "",
          "type": "uint256"
        }
      ],
      "name": "Items",
      "outputs": [
        {
          "internalType": "uint256",
          "name": "id",
          "type": "uint256"
        },
        {
          "internalType": "string",
          "name": "name",
          "type": "string"
        },
        {
          "internalType": "string",
          "name": "origin",
          "type": "string"
        },
        {
          "internalType": "string",
          "name": "destination",
          "type": "string"
        },
        {
          "internalType": "uint256",
          "name": "senstivityLevel",
          "type": "uint256"
        },
        {
          "internalType": "string",
          "name": "currentLoc",
          "type": "string"
        },
        {
          "internalType": "string",
          "name": "history",
          "type": "string"
        },
        {
          "internalType": "string",
          "name": "lastUpdated",
          "type": "string"
        }
      ],
      "payable": false,
      "stateMutability": "view",
      "type": "function"
    },
    {
      "constant": true,
      "inputs": [
        {
          "internalType": "uint256",
          "name": "",
          "type": "uint256"
        }
      ],
      "name": "Medicines",
      "outputs": [
        {
          "internalType": "uint256",
          "name": "id",
          "type": "uint256"
        },
        {
          "internalType": "string",
          "name": "name",
          "type": "string"
        },
        {
          "internalType": "string",
          "name": "origin",
          "type": "string"
        },
        {
          "internalType": "string",
          "name": "destination",
          "type": "string"
        },
        {
          "internalType": "string",
          "name": "currentLoc",
          "type": "string"
        },
        {
          "internalType": "string",
          "name": "lastUpdated",
          "type": "string"
        },
        {
          "internalType": "string",
          "name": "units",
          "type": "string"
        },
        {
          "internalType": "string",
          "name": "temperature",
          "type": "string"
        }
      ],
      "payable": false,
      "stateMutability": "view",
      "type": "function"
    },
    {
      "constant": true,
      "inputs": [
        {
          "internalType": "uint256",
          "name": "",
          "type": "uint256"
        }
      ],
      "name": "Supplies",
      "outputs": [
        {
          "internalType": "uint256",
          "name": "id",
          "type": "uint256"
        },
        {
          "internalType": "string",
          "name": "name",
          "type": "string"
        },
        {
          "internalType": "string",
          "name": "origin",
          "type": "string"
        },
        {
          "internalType": "string",
          "name": "destination",
          "type": "string"
        },
        {
          "internalType": "uint256",
          "name": "senstivityLevel",
          "type": "uint256"
        },
        {
          "internalType": "string",
          "name": "currentLoc",
          "type": "string"
        },
        {
          "internalType": "string",
          "name": "history",
          "type": "string"
        },
        {
          "internalType": "string",
          "name": "units",
          "type": "string"
        }
      ],
      "payable": false,
      "stateMutability": "view",
      "type": "function"
    },
    {
      "constant": true,
      "inputs": [],
      "name": "donationCount",
      "outputs": [
        {
          "internalType": "uint256",
          "name": "",
          "type": "uint256"
        }
      ],
      "payable": false,
      "stateMutability": "view",
      "type": "function"
    },
    {
      "constant": true,
      "inputs": [],
      "name": "itemCount",
      "outputs": [
        {
          "internalType": "uint256",
          "name": "",
          "type": "uint256"
        }
      ],
      "payable": false,
      "stateMutability": "view",
      "type": "function"
    },
    {
      "constant": true,
      "inputs": [],
      "name": "medicineCount",
      "outputs": [
        {
          "internalType": "uint256",
          "name": "",
          "type": "uint256"
        }
      ],
      "payable": false,
      "stateMutability": "view",
      "type": "function"
    },
    {
      "constant": true,
      "inputs": [],
      "name": "supplyCount",
      "outputs": [
        {
          "internalType": "uint256",
          "name": "",
          "type": "uint256"
        }
      ],
      "payable": false,
      "stateMutability": "view",
      "type": "function"
    },
    {
      "constant": true,
      "inputs": [
        {
          "internalType": "address",
          "name": "",
          "type": "address"
        }
      ],
      "name": "users",
      "outputs": [
        {
          "internalType": "bool",
          "name": "",
          "type": "bool"
        }
      ],
      "payable": false,
      "stateMutability": "view",
      "type": "function"
    },
    {
      "constant": false,
      "inputs": [
        {
          "internalType": "uint256",
          "name": "_itemId",
          "type": "uint256"
        },
        {
          "internalType": "string",
          "name": "_newLoc",
          "type": "string"
        }
      ],
      "name": "updateLocation",
      "outputs": [],
      "payable": false,
      "stateMutability": "nonpayable",
      "type": "function"
    },
    {
      "constant": false,
      "inputs": [
        {
          "internalType": "uint256",
          "name": "_medId",
          "type": "uint256"
        },
        {
          "internalType": "string",
          "name": "_newLoc",
          "type": "string"
        }
      ],
      "name": "updateMedLocation",
      "outputs": [],
      "payable": false,
      "stateMutability": "nonpayable",
      "type": "function"
    },
    {
      "constant": false,
      "inputs": [
        {
          "internalType": "uint256",
          "name": "_supId",
          "type": "uint256"
        },
        {
          "internalType": "string",
          "name": "_newLoc",
          "type": "string"
        }
      ],
      "name": "updateSupLocation",
      "outputs": [],
      "payable": false,
      "stateMutability": "nonpayable",
      "type": "function"
    },
    {
      "constant": false,
      "inputs": [
        {
          "internalType": "uint256",
          "name": "_donId",
          "type": "uint256"
        },
        {
          "internalType": "string",
          "name": "_newLoc",
          "type": "string"
        }
      ],
      "name": "updateDonLocation",
      "outputs": [],
      "payable": false,
      "stateMutability": "nonpayable",
      "type": "function"
    },
    {
      "constant": false,
      "inputs": [
        {
          "internalType": "uint256",
          "name": "_medId",
          "type": "uint256"
        },
        {
          "internalType": "string",
          "name": "_temp",
          "type": "string"
        }
      ],
      "name": "updateMedTemp",
      "outputs": [],
      "payable": false,
      "stateMutability": "nonpayable",
      "type": "function"
    },
    {
      "constant": false,
      "inputs": [
        {
          "internalType": "uint256",
          "name": "_medId",
          "type": "uint256"
        },
        {
          "internalType": "string",
          "name": "_units",
          "type": "string"
        }
      ],
      "name": "updateMedUnits",
      "outputs": [],
      "payable": false,
      "stateMutability": "nonpayable",
      "type": "function"
    },
    {
      "constant": false,
      "inputs": [
        {
          "internalType": "uint256",
          "name": "_supId",
          "type": "uint256"
        },
        {
          "internalType": "string",
          "name": "_units",
          "type": "string"
        }
      ],
      "name": "updateSupUnits",
      "outputs": [],
      "payable": false,
      "stateMutability": "nonpayable",
      "type": "function"
    },
    {
      "constant": false,
      "inputs": [
        {
          "internalType": "uint256",
          "name": "_itemId",
          "type": "uint256"
        },
        {
          "internalType": "uint256",
          "name": "_newSensitivity",
          "type": "uint256"
        }
      ],
      "name": "updateSensitivity",
      "outputs": [],
      "payable": false,
      "stateMutability": "nonpayable",
      "type": "function"
    },
    {
      "constant": false,
      "inputs": [
        {
          "internalType": "uint256",
          "name": "_itemId",
          "type": "uint256"
        },
        {
          "internalType": "string",
          "name": "_newDestination",
          "type": "string"
        }
      ],
      "name": "updateDestination",
      "outputs": [],
      "payable": false,
      "stateMutability": "nonpayable",
      "type": "function"
    }
  ],
  "bytecode": "0x60806040523480156200001157600080fd5b50620001686040518060400160405280600681526020017f4974656d203100000000000000000000000000000000000000000000000000008152506040518060400160405280600681526020017f426f73746f6e00000000000000000000000000000000000000000000000000008152506040518060400160405280600581526020017f546f6b796f00000000000000000000000000000000000000000000000000000081525060036040518060400160405280600381526020017f4e594300000000000000000000000000000000000000000000000000000000008152506040518060400160405280601481526020017f4c61737420696e2052686f64652049736c616e640000000000000000000000008152506040518060400160405280601181526020017f55706461746564206279204d6564496e630000000000000000000000000000008152506200072e60201b60201c565b620002be6040518060400160405280600681526020017f4974656d203200000000000000000000000000000000000000000000000000008152506040518060400160405280600681526020017f4d6f73636f7700000000000000000000000000000000000000000000000000008152506040518060400160405280600581526020017f506172697300000000000000000000000000000000000000000000000000000081525060036040518060400160405280600681526020017f4c6f6e646f6e00000000000000000000000000000000000000000000000000008152506040518060400160405280600e81526020017f4c61737420696e20417468656e730000000000000000000000000000000000008152506040518060400160405280601181526020017f5570646174656420627920554e494345460000000000000000000000000000008152506200072e60201b60201c565b620004486040518060400160405280601081526020017f4f7267616e20446f6e6174696f6e2031000000000000000000000000000000008152506040518060400160405280600281526020017f4c410000000000000000000000000000000000000000000000000000000000008152506040518060400160405280600381526020017f4e594300000000000000000000000000000000000000000000000000000000008152506040518060400160405280600281526020017f53460000000000000000000000000000000000000000000000000000000000008152506040518060400160405280600c81526020017f50617469656e74203132333400000000000000000000000000000000000000008152506040518060400160405280600a81526020017f446f6e6f722031323334000000000000000000000000000000000000000000008152506040518060400160405280600681526020017f4b69646e657900000000000000000000000000000000000000000000000000008152506200086a60201b60201c565b620005d26040518060400160405280601081526020017f416e7469747562657263756c6f736973000000000000000000000000000000008152506040518060400160405280600281526020017f4c410000000000000000000000000000000000000000000000000000000000008152506040518060400160405280600581526020017f546f6b796f0000000000000000000000000000000000000000000000000000008152506040518060400160405280600681526020017f48617761696900000000000000000000000000000000000000000000000000008152506040518060400160405280600c81526020017f4c61737420696e204775616d00000000000000000000000000000000000000008152506040518060400160405280600381526020017f32303000000000000000000000000000000000000000000000000000000000008152506040518060400160405280600481526020017f3130304600000000000000000000000000000000000000000000000000000000815250620009bc60201b60201c565b620007286040518060400160405280600881526020017f42616e64616964730000000000000000000000000000000000000000000000008152506040518060400160405280600281526020017f4c410000000000000000000000000000000000000000000000000000000000008152506040518060400160405280600781526020017f4265696a696e670000000000000000000000000000000000000000000000000081525060066040518060400160405280600381526020017f4e594300000000000000000000000000000000000000000000000000000000008152506040518060400160405280600e81526020017f4c61737420696e20426f73746f6e0000000000000000000000000000000000008152506040518060400160405280600481526020017f313030300000000000000000000000000000000000000000000000000000000081525062000b0e60201b60201c565b62000cfa565b6005600081548092919060010191905055506040518061010001604052806005548152602001888152602001878152602001868152602001858152602001848152602001838152602001828152506000806005548152602001908152602001600020600082015181600001556020820151816001019080519060200190620007b892919062000c4b565b506040820151816002019080519060200190620007d792919062000c4b565b506060820151816003019080519060200190620007f692919062000c4b565b506080820151816004015560a08201518160050190805190602001906200081f92919062000c4b565b5060c08201518160060190805190602001906200083e92919062000c4b565b5060e08201518160070190805190602001906200085d92919062000c4b565b5090505050505050505050565b600660008154809291906001019190505550604051806101000160405280600654815260200188815260200187815260200186815260200185815260200184815260200183815260200182815250600160006006548152602001908152602001600020600082015181600001556020820151816001019080519060200190620008f592919062000c4b565b5060408201518160020190805190602001906200091492919062000c4b565b5060608201518160030190805190602001906200093392919062000c4b565b5060808201518160040190805190602001906200095292919062000c4b565b5060a08201518160050190805190602001906200097192919062000c4b565b5060c08201518160060190805190602001906200099092919062000c4b565b5060e0820151816007019080519060200190620009af92919062000c4b565b5090505050505050505050565b60076000815480929190600101919050555060405180610100016040528060065481526020018881526020018781526020018681526020018581526020018481526020018381526020018281525060026000600754815260200190815260200160002060008201518160000155602082015181600101908051906020019062000a4792919062000c4b565b50604082015181600201908051906020019062000a6692919062000c4b565b50606082015181600301908051906020019062000a8592919062000c4b565b50608082015181600401908051906020019062000aa492919062000c4b565b5060a082015181600501908051906020019062000ac392919062000c4b565b5060c082015181600601908051906020019062000ae292919062000c4b565b5060e082015181600701908051906020019062000b0192919062000c4b565b5090505050505050505050565b60086000815480929190600101919050555060405180610100016040528060065481526020018881526020018781526020018681526020018581526020018481526020018381526020018281525060036000600854815260200190815260200160002060008201518160000155602082015181600101908051906020019062000b9992919062000c4b565b50604082015181600201908051906020019062000bb892919062000c4b565b50606082015181600301908051906020019062000bd792919062000c4b565b506080820151816004015560a082015181600501908051906020019062000c0092919062000c4b565b5060c082015181600601908051906020019062000c1f92919062000c4b565b5060e082015181600701908051906020019062000c3e92919062000c4b565b5090505050505050505050565b828054600181600116156101000203166002900490600052602060002090601f016020900481019282601f1062000c8e57805160ff191683800117855562000cbf565b8280016001018555821562000cbf579182015b8281111562000cbe57825182559160200191906001019062000ca1565b5b50905062000cce919062000cd2565b5090565b62000cf791905b8082111562000cf357600081600090555060010162000cd9565b5090565b90565b612b9e8062000d0a6000396000f3fe608060405234801561001057600080fd5b50600436106101165760003560e01c8063a87430ba116100a2578063c757fc2a11610071578063c757fc2a14610eba578063eb9fea3b146111f0578063ef52d6961461120e578063f1b6b763146112d3578063f790d9c31461139857610116565b8063a87430ba14610792578063b03611e0146107ee578063b2142d8514610abf578063c17cbdb614610df557610116565b8063369abeff116100e9578063369abeff146105945780634a2a3bf8146106595780634dafd490146106915780634ec0c9e9146106af5780636bfb0d011461077457610116565b806303deef321461011b57806317b47cc4146101e057806321adc2ed146104b15780632abfab4d14610576575b600080fd5b6101de6004803603604081101561013157600080fd5b81019080803590602001909291908035906020019064010000000081111561015857600080fd5b82018360208201111561016a57600080fd5b8035906020019184600183028401116401000000008311171561018c57600080fd5b91908080601f016020809104026020016040519081016040528093929190818152602001838380828437600081840152601f19601f82011690508083019250505050505050919291929050505061145d565b005b61020c600480360360208110156101f657600080fd5b81019080803590602001909291905050506114ff565b6040518089815260200180602001806020018060200188815260200180602001806020018060200187810387528e818151815260200191508051906020019080838360005b8381101561026c578082015181840152602081019050610251565b50505050905090810190601f1680156102995780820380516001836020036101000a031916815260200191505b5087810386528d818151815260200191508051906020019080838360005b838110156102d25780820151818401526020810190506102b7565b50505050905090810190601f1680156102ff5780820380516001836020036101000a031916815260200191505b5087810385528c818151815260200191508051906020019080838360005b8381101561033857808201518184015260208101905061031d565b50505050905090810190601f1680156103655780820380516001836020036101000a031916815260200191505b5087810384528a818151815260200191508051906020019080838360005b8381101561039e578082015181840152602081019050610383565b50505050905090810190601f1680156103cb5780820380516001836020036101000a031916815260200191505b50878103835289818151815260200191508051906020019080838360005b838110156104045780820151818401526020810190506103e9565b50505050905090810190601f1680156104315780820380516001836020036101000a031916815260200191505b50878103825288818151815260200191508051906020019080838360005b8381101561046a57808201518184015260208101905061044f565b50505050905090810190601f1680156104975780820380516001836020036101000a031916815260200191505b509e50505050505050505050505050505060405180910390f35b610574600480360360408110156104c757600080fd5b8101908080359060200190929190803590602001906401000000008111156104ee57600080fd5b82018360208201111561050057600080fd5b8035906020019184600183028401116401000000008311171561052257600080fd5b91908080601f016020809104026020016040519081016040528093929190818152602001838380828437600081840152601f19601f8201169050808301925050505050505091929192905050506118d7565b005b61057e611978565b6040518082815260200191505060405180910390f35b610657600480360360408110156105aa57600080fd5b8101908080359060200190929190803590602001906401000000008111156105d157600080fd5b8201836020820111156105e357600080fd5b8035906020019184600183028401116401000000008311171561060557600080fd5b91908080601f016020809104026020016040519081016040528093929190818152602001838380828437600081840152601f19601f82011690508083019250505050505050919291929050505061197e565b005b61068f6004803603604081101561066f57600080fd5b810190808035906020019092919080359060200190929190505050611a20565b005b610699611ab1565b6040518082815260200191505060405180910390f35b610772600480360360408110156106c557600080fd5b8101908080359060200190929190803590602001906401000000008111156106ec57600080fd5b8201836020820111156106fe57600080fd5b8035906020019184600183028401116401000000008311171561072057600080fd5b91908080601f016020809104026020016040519081016040528093929190818152602001838380828437600081840152601f19601f820116905080830192505050505050509192919290505050611ab7565b005b61077c611b58565b6040518082815260200191505060405180910390f35b6107d4600480360360208110156107a857600080fd5b81019080803573ffffffffffffffffffffffffffffffffffffffff169060200190929190505050611b5e565b604051808215151515815260200191505060405180910390f35b61081a6004803603602081101561080457600080fd5b8101908080359060200190929190505050611b7e565b6040518089815260200180602001806020018060200188815260200180602001806020018060200187810387528e818151815260200191508051906020019080838360005b8381101561087a57808201518184015260208101905061085f565b50505050905090810190601f1680156108a75780820380516001836020036101000a031916815260200191505b5087810386528d818151815260200191508051906020019080838360005b838110156108e05780820151818401526020810190506108c5565b50505050905090810190601f16801561090d5780820380516001836020036101000a031916815260200191505b5087810385528c818151815260200191508051906020019080838360005b8381101561094657808201518184015260208101905061092b565b50505050905090810190601f1680156109735780820380516001836020036101000a031916815260200191505b5087810384528a818151815260200191508051906020019080838360005b838110156109ac578082015181840152602081019050610991565b50505050905090810190601f1680156109d95780820380516001836020036101000a031916815260200191505b50878103835289818151815260200191508051906020019080838360005b83811015610a125780820151818401526020810190506109f7565b50505050905090810190601f168015610a3f5780820380516001836020036101000a031916815260200191505b50878103825288818151815260200191508051906020019080838360005b83811015610a78578082015181840152602081019050610a5d565b50505050905090810190601f168015610aa55780820380516001836020036101000a031916815260200191505b509e50505050505050505050505050505060405180910390f35b610aeb60048036036020811015610ad557600080fd5b8101908080359060200190929190505050611f56565b604051808981526020018060200180602001806020018060200180602001806020018060200188810388528f818151815260200191508051906020019080838360005b83811015610b49578082015181840152602081019050610b2e565b50505050905090810190601f168015610b765780820380516001836020036101000a031916815260200191505b5088810387528e818151815260200191508051906020019080838360005b83811015610baf578082015181840152602081019050610b94565b50505050905090810190601f168015610bdc5780820380516001836020036101000a031916815260200191505b5088810386528d818151815260200191508051906020019080838360005b83811015610c15578082015181840152602081019050610bfa565b50505050905090810190601f168015610c425780820380516001836020036101000a031916815260200191505b5088810385528c818151815260200191508051906020019080838360005b83811015610c7b578082015181840152602081019050610c60565b50505050905090810190601f168015610ca85780820380516001836020036101000a031916815260200191505b5088810384528b818151815260200191508051906020019080838360005b83811015610ce1578082015181840152602081019050610cc6565b50505050905090810190601f168015610d0e5780820380516001836020036101000a031916815260200191505b5088810383528a818151815260200191508051906020019080838360005b83811015610d47578082015181840152602081019050610d2c565b50505050905090810190601f168015610d745780820380516001836020036101000a031916815260200191505b50888103825289818151815260200191508051906020019080838360005b83811015610dad578082015181840152602081019050610d92565b50505050905090810190601f168015610dda5780820380516001836020036101000a031916815260200191505b509f5050505050505050505050505050505060405180910390f35b610eb860048036036040811015610e0b57600080fd5b810190808035906020019092919080359060200190640100000000811115610e3257600080fd5b820183602082011115610e4457600080fd5b80359060200191846001830284011164010000000083111715610e6657600080fd5b91908080601f016020809104026020016040519081016040528093929190818152602001838380828437600081840152601f19601f8201169050808301925050505050505091929192905050506123c6565b005b610ee660048036036020811015610ed057600080fd5b8101908080359060200190929190505050612468565b604051808981526020018060200180602001806020018060200180602001806020018060200188810388528f818151815260200191508051906020019080838360005b83811015610f44578082015181840152602081019050610f29565b50505050905090810190601f168015610f715780820380516001836020036101000a031916815260200191505b5088810387528e818151815260200191508051906020019080838360005b83811015610faa578082015181840152602081019050610f8f565b50505050905090810190601f168015610fd75780820380516001836020036101000a031916815260200191505b5088810386528d818151815260200191508051906020019080838360005b83811015611010578082015181840152602081019050610ff5565b50505050905090810190601f16801561103d5780820380516001836020036101000a031916815260200191505b5088810385528c818151815260200191508051906020019080838360005b8381101561107657808201518184015260208101905061105b565b50505050905090810190601f1680156110a35780820380516001836020036101000a031916815260200191505b5088810384528b818151815260200191508051906020019080838360005b838110156110dc5780820151818401526020810190506110c1565b50505050905090810190601f1680156111095780820380516001836020036101000a031916815260200191505b5088810383528a818151815260200191508051906020019080838360005b83811015611142578082015181840152602081019050611127565b50505050905090810190601f16801561116f5780820380516001836020036101000a031916815260200191505b50888103825289818151815260200191508051906020019080838360005b838110156111a857808201518184015260208101905061118d565b50505050905090810190601f1680156111d55780820380516001836020036101000a031916815260200191505b509f5050505050505050505050505050505060405180910390f35b6111f86128d8565b6040518082815260200191505060405180910390f35b6112d16004803603604081101561122457600080fd5b81019080803590602001909291908035906020019064010000000081111561124b57600080fd5b82018360208201111561125d57600080fd5b8035906020019184600183028401116401000000008311171561127f57600080fd5b91908080601f016020809104026020016040519081016040528093929190818152602001838380828437600081840152601f19601f8201169050808301925050505050505091929192905050506128de565b005b611396600480360360408110156112e957600080fd5b81019080803590602001909291908035906020019064010000000081111561131057600080fd5b82018360208201111561132257600080fd5b8035906020019184600183028401116401000000008311171561134457600080fd5b91908080601f016020809104026020016040519081016040528093929190818152602001838380828437600081840152601f19601f820116905080830192505050505050509192919290505050612980565b005b61145b600480360360408110156113ae57600080fd5b8101908080359060200190929190803590602001906401000000008111156113d557600080fd5b8201836020820111156113e757600080fd5b8035906020019184600183028401116401000000008311171561140957600080fd5b91908080601f016020809104026020016040519081016040528093929190818152602001838380828437600081840152601f19601f820116905080830192505050505050509192919290505050612a22565b005b60008211801561146f57506008548211155b61147857600080fd5b6001600460003373ffffffffffffffffffffffffffffffffffffffff1673ffffffffffffffffffffffffffffffffffffffff16815260200190815260200160002060006101000a81548160ff021916908315150217905550806003600084815260200190815260200160002060050190805190602001906114fa929190612ac4565b505050565b6000602052806000526040600020600091509050806000015490806001018054600181600116156101000203166002900480601f0160208091040260200160405190810160405280929190818152602001828054600181600116156101000203166002900480156115b15780601f10611586576101008083540402835291602001916115b1565b820191906000526020600020905b81548152906001019060200180831161159457829003601f168201915b505050505090806002018054600181600116156101000203166002900480601f01602080910402602001604051908101604052809291908181526020018280546001816001161561010002031660029004801561164f5780601f106116245761010080835404028352916020019161164f565b820191906000526020600020905b81548152906001019060200180831161163257829003601f168201915b505050505090806003018054600181600116156101000203166002900480601f0160208091040260200160405190810160405280929190818152602001828054600181600116156101000203166002900480156116ed5780601f106116c2576101008083540402835291602001916116ed565b820191906000526020600020905b8154815290600101906020018083116116d057829003601f168201915b505050505090806004015490806005018054600181600116156101000203166002900480601f0160208091040260200160405190810160405280929190818152602001828054600181600116156101000203166002900480156117915780601f1061176657610100808354040283529160200191611791565b820191906000526020600020905b81548152906001019060200180831161177457829003601f168201915b505050505090806006018054600181600116156101000203166002900480601f01602080910402602001604051908101604052809291908181526020018280546001816001161561010002031660029004801561182f5780601f106118045761010080835404028352916020019161182f565b820191906000526020600020905b81548152906001019060200180831161181257829003601f168201915b505050505090806007018054600181600116156101000203166002900480601f0160208091040260200160405190810160405280929190818152602001828054600181600116156101000203166002900480156118cd5780601f106118a2576101008083540402835291602001916118cd565b820191906000526020600020905b8154815290600101906020018083116118b057829003601f168201915b5050505050905088565b6000821180156118e957506005548211155b6118f257600080fd5b6001600460003373ffffffffffffffffffffffffffffffffffffffff1673ffffffffffffffffffffffffffffffffffffffff16815260200190815260200160002060006101000a81548160ff021916908315150217905550806000808481526020019081526020016000206003019080519060200190611973929190612ac4565b505050565b60065481565b60008211801561199057506007548211155b61199957600080fd5b6001600460003373ffffffffffffffffffffffffffffffffffffffff1673ffffffffffffffffffffffffffffffffffffffff16815260200190815260200160002060006101000a81548160ff02191690831515021790555080600260008481526020019081526020016000206004019080519060200190611a1b929190612ac4565b505050565b600082118015611a3257506005548211155b611a3b57600080fd5b6001600460003373ffffffffffffffffffffffffffffffffffffffff1673ffffffffffffffffffffffffffffffffffffffff16815260200190815260200160002060006101000a81548160ff02191690831515021790555080600080848152602001908152602001600020600401819055505050565b60075481565b600082118015611ac957506005548211155b611ad257600080fd5b6001600460003373ffffffffffffffffffffffffffffffffffffffff1673ffffffffffffffffffffffffffffffffffffffff16815260200190815260200160002060006101000a81548160ff021916908315150217905550806000808481526020019081526020016000206005019080519060200190611b53929190612ac4565b505050565b60055481565b60046020528060005260406000206000915054906101000a900460ff1681565b6003602052806000526040600020600091509050806000015490806001018054600181600116156101000203166002900480601f016020809104026020016040519081016040528092919081815260200182805460018160011615610100020316600290048015611c305780601f10611c0557610100808354040283529160200191611c30565b820191906000526020600020905b815481529060010190602001808311611c1357829003601f168201915b505050505090806002018054600181600116156101000203166002900480601f016020809104026020016040519081016040528092919081815260200182805460018160011615610100020316600290048015611cce5780601f10611ca357610100808354040283529160200191611cce565b820191906000526020600020905b815481529060010190602001808311611cb157829003601f168201915b505050505090806003018054600181600116156101000203166002900480601f016020809104026020016040519081016040528092919081815260200182805460018160011615610100020316600290048015611d6c5780601f10611d4157610100808354040283529160200191611d6c565b820191906000526020600020905b815481529060010190602001808311611d4f57829003601f168201915b505050505090806004015490806005018054600181600116156101000203166002900480601f016020809104026020016040519081016040528092919081815260200182805460018160011615610100020316600290048015611e105780601f10611de557610100808354040283529160200191611e10565b820191906000526020600020905b815481529060010190602001808311611df357829003601f168201915b505050505090806006018054600181600116156101000203166002900480601f016020809104026020016040519081016040528092919081815260200182805460018160011615610100020316600290048015611eae5780601f10611e8357610100808354040283529160200191611eae565b820191906000526020600020905b815481529060010190602001808311611e9157829003601f168201915b505050505090806007018054600181600116156101000203166002900480601f016020809104026020016040519081016040528092919081815260200182805460018160011615610100020316600290048015611f4c5780601f10611f2157610100808354040283529160200191611f4c565b820191906000526020600020905b815481529060010190602001808311611f2f57829003601f168201915b5050505050905088565b6001602052806000526040600020600091509050806000015490806001018054600181600116156101000203166002900480601f0160208091040260200160405190810160405280929190818152602001828054600181600116156101000203166002900480156120085780601f10611fdd57610100808354040283529160200191612008565b820191906000526020600020905b815481529060010190602001808311611feb57829003601f168201915b505050505090806002018054600181600116156101000203166002900480601f0160208091040260200160405190810160405280929190818152602001828054600181600116156101000203166002900480156120a65780601f1061207b576101008083540402835291602001916120a6565b820191906000526020600020905b81548152906001019060200180831161208957829003601f168201915b505050505090806003018054600181600116156101000203166002900480601f0160208091040260200160405190810160405280929190818152602001828054600181600116156101000203166002900480156121445780601f1061211957610100808354040283529160200191612144565b820191906000526020600020905b81548152906001019060200180831161212757829003601f168201915b505050505090806004018054600181600116156101000203166002900480601f0160208091040260200160405190810160405280929190818152602001828054600181600116156101000203166002900480156121e25780601f106121b7576101008083540402835291602001916121e2565b820191906000526020600020905b8154815290600101906020018083116121c557829003601f168201915b505050505090806005018054600181600116156101000203166002900480601f0160208091040260200160405190810160405280929190818152602001828054600181600116156101000203166002900480156122805780601f1061225557610100808354040283529160200191612280565b820191906000526020600020905b81548152906001019060200180831161226357829003601f168201915b505050505090806006018054600181600116156101000203166002900480601f01602080910402602001604051908101604052809291908181526020018280546001816001161561010002031660029004801561231e5780601f106122f35761010080835404028352916020019161231e565b820191906000526020600020905b81548152906001019060200180831161230157829003601f168201915b505050505090806007018054600181600116156101000203166002900480601f0160208091040260200160405190810160405280929190818152602001828054600181600116156101000203166002900480156123bc5780601f10612391576101008083540402835291602001916123bc565b820191906000526020600020905b81548152906001019060200180831161239f57829003601f168201915b5050505050905088565b6000821180156123d857506007548211155b6123e157600080fd5b6001600460003373ffffffffffffffffffffffffffffffffffffffff1673ffffffffffffffffffffffffffffffffffffffff16815260200190815260200160002060006101000a81548160ff02191690831515021790555080600260008481526020019081526020016000206007019080519060200190612463929190612ac4565b505050565b6002602052806000526040600020600091509050806000015490806001018054600181600116156101000203166002900480601f01602080910402602001604051908101604052809291908181526020018280546001816001161561010002031660029004801561251a5780601f106124ef5761010080835404028352916020019161251a565b820191906000526020600020905b8154815290600101906020018083116124fd57829003601f168201915b505050505090806002018054600181600116156101000203166002900480601f0160208091040260200160405190810160405280929190818152602001828054600181600116156101000203166002900480156125b85780601f1061258d576101008083540402835291602001916125b8565b820191906000526020600020905b81548152906001019060200180831161259b57829003601f168201915b505050505090806003018054600181600116156101000203166002900480601f0160208091040260200160405190810160405280929190818152602001828054600181600116156101000203166002900480156126565780601f1061262b57610100808354040283529160200191612656565b820191906000526020600020905b81548152906001019060200180831161263957829003601f168201915b505050505090806004018054600181600116156101000203166002900480601f0160208091040260200160405190810160405280929190818152602001828054600181600116156101000203166002900480156126f45780601f106126c9576101008083540402835291602001916126f4565b820191906000526020600020905b8154815290600101906020018083116126d757829003601f168201915b505050505090806005018054600181600116156101000203166002900480601f0160208091040260200160405190810160405280929190818152602001828054600181600116156101000203166002900480156127925780601f1061276757610100808354040283529160200191612792565b820191906000526020600020905b81548152906001019060200180831161277557829003601f168201915b505050505090806006018054600181600116156101000203166002900480601f0160208091040260200160405190810160405280929190818152602001828054600181600116156101000203166002900480156128305780601f1061280557610100808354040283529160200191612830565b820191906000526020600020905b81548152906001019060200180831161281357829003601f168201915b505050505090806007018054600181600116156101000203166002900480601f0160208091040260200160405190810160405280929190818152602001828054600181600116156101000203166002900480156128ce5780601f106128a3576101008083540402835291602001916128ce565b820191906000526020600020905b8154815290600101906020018083116128b157829003601f168201915b5050505050905088565b60085481565b6000821180156128f057506007548211155b6128f957600080fd5b6001600460003373ffffffffffffffffffffffffffffffffffffffff1673ffffffffffffffffffffffffffffffffffffffff16815260200190815260200160002060006101000a81548160ff0219169083151502179055508060026000848152602001908152602001600020600601908051906020019061297b929190612ac4565b505050565b60008211801561299257506006548211155b61299b57600080fd5b6001600460003373ffffffffffffffffffffffffffffffffffffffff1673ffffffffffffffffffffffffffffffffffffffff16815260200190815260200160002060006101000a81548160ff02191690831515021790555080600160008481526020019081526020016000206004019080519060200190612a1d929190612ac4565b505050565b600082118015612a3457506008548211155b612a3d57600080fd5b6001600460003373ffffffffffffffffffffffffffffffffffffffff1673ffffffffffffffffffffffffffffffffffffffff16815260200190815260200160002060006101000a81548160ff02191690831515021790555080600360008481526020019081526020016000206007019080519060200190612abf929190612ac4565b505050565b828054600181600116156101000203166002900490600052602060002090601f016020900481019282601f10612b0557805160ff1916838001178555612b33565b82800160010185558215612b33579182015b82811115612b32578251825591602001919060010190612b17565b5b509050612b409190612b44565b5090565b612b6691905b80821115612b62576000816000905550600101612b4a565b5090565b9056fea265627a7a7231582035669275b20a15d6c980ddf06dafe4db5e4c80cedaf70d6212ad5ed407c3253f64736f6c63430005100032",
  "source": "pragma solidity 0.5.16;\n\ncontract Tracker {\n    // Read/write package\n\n    struct Item {\n        uint id;\n        string name;\n        string origin;\n        string destination;\n        uint senstivityLevel;\n        string currentLoc;\n        string history;\n        string lastUpdated;\n    }\n\n    struct Donation {\n        uint id;\n        string name;\n        string origin;\n        string destination;\n        string currentLoc;\n        string patient;\n        string donor;\n        string subtype;\n    }\n\n\n    struct Medicine {\n        uint id;\n        string name;\n        string origin;\n        string destination;\n        string currentLoc;\n        string lastUpdated;\n        string units;\n        string temperature;\n    }\n\n    struct Supply {\n        uint id;\n        string name;\n        string origin;\n        string destination;\n        uint senstivityLevel;\n        string currentLoc;\n        string history;\n        string units;\n    }\n\n\n    mapping(uint => Item) public Items;\n    mapping(uint => Donation) public Donations;\n    mapping(uint => Medicine) public Medicines;\n    mapping(uint => Supply) public Supplies;\n    mapping(address => bool) public users;\n\n    uint public itemCount;\n    uint public donationCount;\n    uint public medicineCount;\n    uint public supplyCount;\n\n    function addItem (string memory _name, string memory _origin, string memory _destination, uint _sensitivity, string memory _currentLoc, string memory _history, string memory _lastUpdated) private {\n        itemCount ++;\n        Items[itemCount] = Item(itemCount, _name, _origin, _destination, _sensitivity, _currentLoc, _history, _lastUpdated);\n    }\n    function addDonation (string memory _name, string memory _origin, string memory _destination, string memory _currentLoc, string memory _patient, string memory _donor, string memory _subtype) private {\n        donationCount ++;\n        //string[] memory tempArr = new string[](0);\n        Donations[donationCount] = Donation(donationCount, _name, _origin, _destination, _currentLoc, _patient, _donor, _subtype);\n    }\n\n    function addMedicine (string memory _name, string memory _origin, string memory _destination, string memory _currentLoc, string memory _lastUpdated, string memory _units, string memory _temperature) private {\n        medicineCount ++;\n        //string[] memory tempArr = new string[](0);\n        Medicines[medicineCount] = Medicine(donationCount, _name, _origin, _destination, _currentLoc, _lastUpdated, _units, _temperature);\n    }\n\n    function addSupply (string memory _name, string memory _origin, string memory _destination, uint _sensitivity, string memory _currentLoc, string memory _history, string memory _units) private {\n        supplyCount ++;\n        //string[] memory tempArr = new string[](0);\n        Supplies[supplyCount] = Supply(donationCount, _name, _origin, _destination, _sensitivity, _currentLoc, _history, _units);\n    }\n\n    function updateLocation (uint _itemId, string memory _newLoc) public {\n\n        // require a valid item\n        require(_itemId > 0 && _itemId <= itemCount);\n\n        // record that user is authed\n        users[msg.sender] = true;\n\n        // update candidate vote Count\n        Items[_itemId].currentLoc = _newLoc;\n    }\n\n    function updateMedLocation (uint _medId, string memory _newLoc) public {\n\n        // require a valid item\n        require(_medId > 0 && _medId <= medicineCount);\n\n        // record that user is authed\n        users[msg.sender] = true;\n\n        // update candidate vote Count\n        Medicines[_medId].currentLoc = _newLoc;\n    }\n\n    function updateSupLocation (uint _supId, string memory _newLoc) public {\n\n        // require a valid item\n        require(_supId > 0 && _supId <= supplyCount);\n\n        // record that user is authed\n        users[msg.sender] = true;\n\n        // update candidate vote Count\n        Supplies[_supId].currentLoc = _newLoc;\n    }\n\n    function updateDonLocation (uint _donId, string memory _newLoc) public {\n\n        // require a valid item\n        require(_donId > 0 && _donId <= donationCount);\n\n        // record that user is authed\n        users[msg.sender] = true;\n\n        // update candidate vote Count\n        Donations[_donId].currentLoc = _newLoc;\n    }\n\n    function updateMedTemp (uint _medId, string memory _temp) public {\n\n        // require a valid item\n        require(_medId > 0 && _medId <= medicineCount);\n\n        // record that user is authed\n        users[msg.sender] = true;\n\n        // update candidate vote Count\n        Medicines[_medId].temperature = _temp;\n    }\n\n    function updateMedUnits (uint _medId, string memory _units) public {\n\n        // require a valid item\n        require(_medId > 0 && _medId <= medicineCount);\n\n        // record that user is authed\n        users[msg.sender] = true;\n\n        // update candidate vote Count\n        Medicines[_medId].units = _units;\n    }\n\n    function updateSupUnits (uint _supId, string memory _units) public {\n\n        // require a valid item\n        require(_supId > 0 && _supId <= supplyCount);\n\n        // record that user is authed\n        users[msg.sender] = true;\n\n        // update candidate vote Count\n        Supplies[_supId].units = _units;\n    }\n\n    function updateSensitivity (uint _itemId, uint _newSensitivity) public {\n\n        // require a valid item\n        require(_itemId > 0 && _itemId <= itemCount);\n\n        // record that user is authed\n        users[msg.sender] = true;\n\n        Items[_itemId].senstivityLevel = _newSensitivity;\n    }\n\n    function updateDestination (uint _itemId,string memory _newDestination) public {\n        // require a valid item\n        require(_itemId > 0 && _itemId <= itemCount);\n\n        // record that user is authed\n        users[msg.sender] = true;\n\n        Items[_itemId].destination = _newDestination;\n    }\n\n\n    // Constructor\n    constructor() public {\n        addItem(\"Item 1\", \"Boston\", \"Tokyo\", 3, \"NYC\", \"Last in Rhode Island\", \"Updated by MedInc\");\n        addItem(\"Item 2\", \"Moscow\", \"Paris\", 3, \"London\", \"Last in Athens\", \"Updated by UNICEF\");\n        addDonation(\"Organ Donation 1\", \"LA\", \"NYC\", \"SF\", \"Patient 1234\", \"Donor 1234\", \"Kidney\");\n        addMedicine(\"Antituberculosis\", \"LA\", \"Tokyo\", \"Hawaii\", \"Last in Guam\", \"200\", \"100F\");\n        addSupply(\"Bandaids\", \"LA\", \"Beijing\", 6, \"NYC\", \"Last in Boston\", \"1000\");\n    }\n}",
  "sourcePath": "/Users/ninataneja/blockchain_project/tracker_copy/contracts/Tracker.sol",
  "compiler": {
    "name": "solc",
    "version": "0.5.16+commit.9c3226ce.Emscripten.clang"
  },
  "schemaVersion": "3.4.6",
  "updatedAt": "2022-05-11T18:47:21.500Z",
  "networkType": "ethereum",
  "devdoc": {
    "methods": {}
  },
  "userdoc": {
    "methods": {}
  }
}